:020000040800F2
:10000000501F002045010008ED2700080D180008CA
:10001000091B0008710A0008DF5A000800000000F0
:100020000000000000000000000000000B3E00087F
:100030009511000800000000692D000869430008C0
:100040005B0100085B0100085B01000855310008F6
:100050005B0100085B0100085B0100085B01000810
:100060005B0100085B0100085B0100085B01000800
:100070005B0100085B0100085B0100085B010008F0
:100080005B0100085B0100085B0100085B010008E0
:100090005B0100085B0100085B0100085B010008D0
:1000A0005B0100085B0100085B0100085B010008C0
:1000B0005B010008E5430008314500085B010008CA
:1000C0005B0100085B0100085B0100085B010008A0
:1000D0005B010008194B0008414D00084D5600080F
:1000E0005B0100081D2F00085B0100085B01000890
:1000F0005B0100085B0100085B0100085B01000870
:100100005B0100085B0100085B0100085B0100085F
:100110005B0100085B0100085B0100085B0100084F
:100120005B0100085B0100085B0100085B0100083F
:10013000DFF80CD000F020F9004800474D5F0008C0
:10014000501F002005480047FEE7FEE7FEE7FEE7F8
:10015000FEE7FEE7FEE7FEE7FEE7FEE73101000807
:1001600010B500683C22B0FBF2F302FB1303B0FBB6
:10017000F2F00B60B0FBF2F302FB1303B0FBF2F002
:1001800018224B60B0FBF2F302FB1303B0FBF2F05A
:10019000021D8B600723B2FBF3F403FB14228000E3
:1001A00040F2B55300F66C308A61B0FBF3F2B0FB5D
:1001B000F3F403FB1400443280084A61C8613B2811
:1001C00002D3920700D0401C0022074C13460A615C
:1001D000E25C824203D8801A5B1C0B61F8E7401C8A
:1001E000C860084610BD00008C64000838B5D0E92E
:1001F0000221491E01EB410102EBC1014268C1EB42
:10020000011102EB81010268C1EB011102EB8102D5
:10021000D0E9043101EB410103EB81013023A1F569
:10022000527191FBF3F4174D6C4302EBC41291FB36
:10023000F3F403FB141100921A2902DB124B1A4447
:1002400000920C2291FBF2F3104C6343009C04EBF0
:10025000C313009391FBF2F302FB13110C4A08E065
:10026000491E40F2A324535C6343009C04EBC31378
:1002700000930029F4DC01466846FFF771FF0098FF
:1002800038BD00003F0C0F008051010067C2030021
:1002900098640008D2B201E000F8012B491EFBD29D
:1002A00070470022F6E710B513460A460446194681
:1002B000FFF7F0FF204610BD421E12F8013F002B51
:1002C000FBD111F8013B02F8013B002BF9D170473B
:1002D00030B505462A460B4612F8010B13F8014BC0
:1002E00008B1A042F8D01CB1002802D06D1CF1E783
:1002F000284630BD421C10F8011B0029FBD1801A92
:100300007047034611F8012B00F8012B002AF9D1A0
:10031000184670472DE9F05F0546002092469B463F
:1003200088460646814640241BE02846414647460B
:10033000224600F042F853465A46C01A914110D363
:1003400011461846224600F029F82D1A67EB0108DD
:100350004F4622460120002100F020F817EB00094B
:100360004E41201EA4F10104DFDC484631462A46F6
:100370004346BDE8F09F0000064C074D06E0E068EC
:1003800040F0010394E8070098471034AC42F6D3DC
:10039000FFF7D2FEA4640008C4640008202A04DB2E
:1003A000203A00FA02F1002070479140C2F1200388
:1003B00020FA03F3194390407047202A04DB203AC7
:1003C00021FA02F00021704721FA02F3D040C2F175
:1003D00020029140084319467047000010B58EB0C6
:1003E00068208DF8040020208DF80500002405E029
:1003F000AA21A01C01AA1154601CC4B2072CF7DB6F
:1004000036208DF80D0004208DF80E00C1208DF8E7
:100410000F00B1208DF8100011208DF81100002080
:100420008DF8120000220F2101A800F023FB8DF8A7
:10043000130016208DF81400FF210448FFF731FF48
:10044000112101A805F0CAF80EB010BDDC0600208D
:1004500070B50546534890F8850100282AD002203F
:100460005149487001205149487000204E49087098
:1004700088704E49C87401204A4981F8860100F00D
:10048000A3F900F051F94FF4FA7005F0E7FC00F021
:10049000A1F900F04FF94548456145A005F0FCFA87
:1004A000C82005F0DBFC45A005F0F6FA00203D4928
:1004B00081F885013B4890F8860110B1502004F086
:1004C00043F93A48007E00286BD041A005F0E4FAD9
:1004D000642005F0C3FC05F0FAFA40A005F002FB29
:1004E0004548FFF707FF0E21B0FBF1F6314643A068
:1004F00005F0F8FA00202B4981F88601002408E075
:100500003D48FFF7F7FE20443B4930220A54601C67
:10051000C4B23948FFF7EEFEC0F1FC00A042EFD8AC
:10052000002408E03648FFF7E5FE20443449302235
:100530000A54601CC4B23248FFF7DCFEC0F1D80098
:10054000A042EFD88C222C492E4803F0D7FB78220A
:100550002B492D4803F0D2FB002406E0264904F184
:100560008C00085C0855601CC4B2702CF6DB0024BB
:1005700006E0234904F17800085C0855601CC4B209
:10058000602CF6DB70221C49204803F0B7FB602288
:100590001B491F4803F0B2FB00F022F90020034979
:1005A000087670BD5A060020E807002020150020BC
:1005B00041542B524F4C453D4D00000041542B53AC
:1005C00043414E3A525353493D2D3830000000000C
:1005D00041542B53544F505343414E00C9A8C3E8D4
:1005E000BDE1CAF82CC9A8C3E8B5BDB5C4B1EDB624
:1005F000CBCAFDC1BFA3BA002010002025640000B3
:100600001F11002000C8000800D8000800CC000816
:1006100000DC000810B50346002024E01C5C302CF0
:1006200006DB1C5C392C03DC1C5C303C0C5418E0F1
:100630001C5C412C09DB1C5C462C06DC1C5C413C30
:100640000C540C5C0A340C540BE01C5C612C08DB71
:100650001C5C662C05DC1C5C613C0C540C5C0A3494
:100660000C54441CE0B29042D8DB10BD08B5012107
:10067000082002F08BFB10208DF803000820ADF855
:10068000000002208DF802006946044800F053FF84
:100690000821024801F02BF808BD0000000C0140C1
:1006A00070B50446002C13DD00250EE001200A4938
:1006B0000860282005F0D2FB00200849C1F88C0111
:1006C000282005F0CBFB681CC5B2A542EEDB02E09A
:1006D00000200149086070BD8C81214200802142C8
:1006E00010B5012002F062FB002002F05FFB10BD9C
:1006F00008B5014600200090034800900098084487
:1007000000900098008808BD006C004008B50022E9
:100710000092044A0092009A02440092009A1160EA
:1007200008BD0000006C00400020014908607047CF
:10073000940121420120014908607047940121423F
:1007400008B50121142002F021FB0220ADF80000C1
:1007500010208DF8030002208DF802006946194828
:1007600000F0E9FE0221174800F0C1FFA020ADF81B
:10077000000010208DF8030002208DF80200694669
:10078000104800F0D8FE0A210E4800F0B0FF1020FB
:10079000ADF8000028208DF8030002208DF802003B
:1007A0006946084800F0C7FE4020ADF80000282048
:1007B0008DF8030002208DF802006946014800F020
:1007C000BAFE08BD000801400020014908607047DA
:1007D00084012142012001490860704784012142BF
:1007E0000020054908700120044908700449087078
:1007F00000200449088070475C0000205B00002056
:100800005A0000205800002010B5654800780128E3
:1008100070D10020624908706248007809286AD2C5
:10082000DFE800F005151F3B4A596A79930002F092
:1008300021F85DA20021012002F09EF8FFF77AFF67
:100840005DA005F04EFD322060490880A5E0022041
:1008500005F0D4F85EA005F01FF901205B4908807F
:100860009BE05EA15E48FFF733FD48B1022005F032
:10087000C5F85CA005F010F90A20544908800BE087
:10088000022005F0BBF852A005F006F90120454909
:1008900008700A204D4908807FE050A15048FFF7BA
:1008A00017FD40B1022005F0A9F851A005F0F4F8B9
:1008B0000A204649088070E048A14948FFF708FD32
:1008C00040B1022005F09AF84DA005F0E5F80A20A5
:1008D0003E49088061E041A14148FFF7F9FC40B181
:1008E000022005F08BF84CA005F0D6F80A20374915
:1008F000088052E052E04AE038A13948FFF7E8FCAE
:1009000040B1022005F07AF846A005F0C5F80A20AB
:100910002E49088041E031A13148FFF7D9FC98B158
:10092000022005F06BF842A005F0B6F80A2027492E
:1009300008800020404948704049487001203E49E5
:1009400008703F493F48416127E0FFF749FF002019
:100950003D4948803D4981F882013B49C8800120DA
:1009600001F0AAF801F086FF39A20021012002F06F
:1009700003F83BA20221012001F0FEFF22A2042184
:10098000012001F0F9FF01203849C87005E000207E
:100990000E4908800349087000BF00BF10BD000069
:1009A0005A0000205C000020D5FDD4DAC6F4B6AFB2
:1009B000C0B6D1C02E2E2E00B5B1C7B0C0B6D1C0C2
:1009C000CEAAB4D3C4A3CABD3A0000005800002088
:1009D00041542B44454641554C5400004F4B0000B8
:1009E0005B04002041542B524F4C453D5300000006
:1009F00041542B424155443D3131353230300000B5
:100A000041542B4E414D453D4E425F424C5545545D
:100A10004F4F5448A1AA310041542B5246504D3DEE
:100A20003500000041542B4D4F44453D300000003F
:100A300041542B5258000000E807002020150020E8
:100A400080A903003C1500204E0000205A0600201B
:100A5000C0B6D1C0D2D1C6F4B6AFA3A10000000089
:100A6000C0B6D1C0C3FBB3C6A3BA00006600002065
:100A700000BFFEE730B503460C460020002105E02C
:100A80008D185D5D0544E8B24D1CE9B2A142F7DB6B
:100A900000BF30BD1E48407A4D2838D11C48807AAE
:100AA000412834D11A48C07A432830D1184890F8E8
:100AB00023004E282BD1164890F82400412826D137
:100AC000134890F825004D2821D1114890F82600B0
:100AD00045281CD10E48807E522818D10C48C07E73
:100AE000532814D10A48007F532810D10848407F6A
:100AF00049280CD1064890F828004A2807D1044814
:100B000090F82900582802D1012002490870704746
:100B10005B0400206E00002010B58EB068208DF8B8
:100B2000040020208DF80500002405E0AA21A01C67
:100B300001AA1154601CC4B2072CF7DBA6208DF863
:100B40000D0005208DF80E00AA208DF80F00BB20A7
:100B50008DF8100000208DF811008DF812008DF82E
:100B600013000022102101A8FFF784FF8DF8140064
:100B700016208DF81500FF210448FFF792FB122183
:100B800001A804F02BFD0EB010BD0000DC06002013
:100B900070B586B00646ED48807EEC4909788842FB
:100BA00011D1EB48007801280DD16420E749087085
:100BB0000E21E848FFF775FB0120E749087042F273
:100BC0001070E6490880E148007814287AD2DFE8FE
:100BD00000F00A7A7F84898E93989DA2A7ACB1B663
:100BE000BBC0C5CACFD4D9488078B8B18221DC480F
:100BF000FFF757FB0120DB49487000208870022076
:100C000004F0FCFE04F063FFD7A005F06AFBDAA055
:100C100004F042FF0020CD49887052E0D9A1DA48A3
:100C2000FFF756FB00284CD018216846FFF739FB28
:100C30000E21C848FFF735FBD4A16846FFF761FBDA
:100C4000002407E0D448015D04F10B000DF800100A
:100C5000601CC4B20C2CF5DB002405E0CE48005D1E
:100C6000CE490855601CC4B20C2CF7DB002408E008
:100C7000CB4800782044CB49085CB6490855601C35
:100C8000C4B20E2CF4DBC64800780E30C44908709C
:100C900004F01DFF022004F0B1FE684604F0FCFEE3
:100CA00004F015FF18216846FFF7FBFA4FF47A604D
:100CB000A649088101200870FF21A948FF38FFF7E5
:100CC000F0FA3FE13DE10621022002F04FFC39E15C
:100CD0000C21032002F0B4FB34E10D21042002F0CA
:100CE00045FC2FE11821052002F0AAFB2AE114217E
:100CF000062002F03BFC25E12421072002F0A0FBA6
:100D000020E11B21082002F031FC1BE130210920E9
:100D100002F096FB16E122210A2002F027FC11E1E5
:100D20003C210B2002F08CFB0CE129210C2002F06D
:100D30001DFC07E148210D2002F082FB02E1302179
:100D40000E2002F013FCFDE054210F2002F078FB8E
:100D5000F8E03721102002F009FCF3E060211120B7
:100D600002F06EFBEEE03E21122002F0FFFBE9E014
:100D70006C21132002F064FBE4E08BA18248FFF7B2
:100D8000A7FAA8B10020714908817649487001206E
:100D90008870452002F0D4FD1321874804F01EFC22
:100DA000022004F02BFE42F2107068494881C7E02F
:100DB0006648407B00285FD00020644948737AA1D0
:100DC0007148FFF785FA0028F1D104F080FE7BA07E
:100DD00005F087FA5D48417C7CA004F083FE7CA08E
:100DE00004F080FE0E215B48FFF75BFA002408E068
:100DF0006A48005D774909782144774A5054601C5D
:100E0000C4B20C2CF4DB754800780E3073490870BE
:100E1000002408E04F48005D704909782144704A79
:100E20005054601CC4B20E2CF4DB6EA005F059FACD
:100E30006B48FFF75FFAC5B20E222946684804F0F6
:100E4000BDFC04F044FE6448FFF754FAC5B20C221E
:100E50002946614804F0B2FC18216846FFF721FAE0
:100E600001204049C87014203849087001203A49CF
:100E700008703749087063E034488079E8B1564813
:100E8000FFF738FAC5B20C222946534804F096FC05
:100E900000202E4988710846407C401C4874182167
:100EA0006846FFF7FEF901202E49C8701420274933
:100EB0000870022004F0A2FD42E02448407958B1B5
:100EC000002022494881012004F098FD01F06EFCC9
:100ED00000201E49487133E02AA14B48FFF7F8F97A
:100EE00070B304F0F4FD3FA005F0FBF93C48FFF7B8
:100EF00001FAC5B20E222946394804F05FFC364893
:100F0000FFF7F8F9C5B20C222946334804F056FC25
:100F10003EA004F0C1FD01200F4908700C49087083
:100F20004FF47A7004F09AFF10213C4800F0D6FB91
:100F3000012802D135A004F0AFFD14200349087048
:100F400000E000BF00BF06B070BD0000201500200B
:100F50006A0000200F140020710000207C00002097
:100F6000C10A0020E8070020BFAACABCC1ACBDD39B
:100F7000B1EDB6CB0000000041542B524F4C453D23
:100F80004D0000004F4B00005B04002041542B43F8
:100F90004F4E4E4543543D001F1100201D140020AC
:100FA0006D0000202010002041542B434F4E4E4531
:100FB000435445440000000029140020C1ACBDD3B7
:100FC000C0B6D1C0CAA7B0DC000000002564000094
:100FD000B8F600006B000020101300206C00002009
:100FE00011120020B6C1C8A1B1EDCAFDBEDDCAA76D
:100FF000B0DCB5C4B1EDBAC5BACD4D4143B5D8D614
:10100000B73A0D0A000000005C03002041542B4455
:101010004953434F4E4E45435400000000080140E1
:1010200070B545480078012858D144480078012817
:1010300054D1FF214248FFF734F9D8214148FFF746
:1010400030F9002405E04048005D3D490855601C2A
:10105000C4B23D48FFF74EF9A042F4D8002405E0A1
:101060003A48005D37490855601CC4B23748FFF75D
:1010700041F9A042F4D83448FFF73CF985B22A463A
:1010800033492F4803F010F9FF212F48FFF709F9E2
:10109000FF212E48FFF705F92B48FFF72BF90E210A
:1010A000B0FBF1F04006000E234948700846407836
:1010B000284988760120C874887000200870487418
:1010C0002549087025490870254908701A49087093
:1010D000204948740220194908702CE0174800780C
:1010E000022828D11B48807E1A490978884222D1DB
:1010F00000201849C8741B484079401CC1B21948E7
:1011000041710020134908700C49087016A005F0C1
:10111000E8F81AA004F0C0FC642004F09FFE10213F
:101120001A4800F0DBFA012802D114A004F0B4FC44
:1011300017A004F0B1FC70BD710000206A0000200F
:10114000201000201F110020111200201013002079
:1011500047140020201500206D0000206B000020A7
:101160006C0000203C150020B6C1C8A1B1EDB6CB83
:10117000CAFDBEDDBDE1CAF80000000041542B44A9
:101180004953434F4E4E4543540000000008014070
:10119000415400007047000010B5134890F88A01D0
:1011A00000B3114890F88C000C300F498231085C74
:1011B000162817D001F05EFB0CA20621012001F0D9
:1011C000DBFB00F0F5F80020074981F88101FF21E1
:1011D00005488230FFF765F800200349A1F888012F
:1011E00081F88A0110BD00005A060020BDD3CAD57F
:1011F000CAFDBEDDB4EDCEF3A3A1A3A100000000A3
:1012000010B51DA20021012001F0B6FB1EA2022193
:10121000012001F0B1FB20A20421012001F0ACFB70
:1012200021A20621012001F0A7FB022004F03CFED0
:1012300001F020FB21A20021012001F09DFB23A24F
:101240000221012001F098FB25A20421012001F0D8
:1012500093FB27A20621012001F08EFB022004F05F
:1012600023FE01F007FB26A20021012001F084FBF0
:101270000120FFF715FA10BDBAFEB1B1B9A4D2B57D
:10128000B4F3D1A700000000B9A4B3CCBCBCCAF52C
:10129000D1A7D4BA00000000D0D5C3FBA3BAC2DEE8
:1012A000B7B6D6A700000000D1A7BAC53230313694
:1012B000313032313331313600000000B1CFD2B598
:1012C000C9E8BCC6CCE2C4BFA3BA0000BBF9D3DAFC
:1012D000C0B6D1C0BACD4E42C4A3D7E900000000C9
:1012E000B5C4CAFDBEDDCAD5BCAFC6F7000000005C
:1012F000D6B8B5BCC0CFCAA6A3BAC0EEC8BA000063
:10130000CFB5CDB3B3F5CABCBBAF2E2E2E000000B7
:10131000014908607047000014040140002123497E
:101320008279002A3AD00A46126803689A430B462B
:101330001A600A1D126803689A430B1D1A6002792D
:1013400011440A6803681A430A60184A083212688E
:1013500003689A43154B08331A601A1D1268036814
:101360009A43124B0C331A604279102A0ED11A1F7D
:10137000126803681A430D4B08331A601A1D12686D
:1013800003681A43094B0C331A600DE00749427990
:1013900011440A6803681A430A6005E0027911449F
:1013A0000A6803689A430A6070470000000401401D
:1013B00010B58EB068208DF8040020208DF805004F
:1013C000002405E0AA21A01C01AA1154601CC4B28B
:1013D000072CF7DB00208DF80D0005208DF80E009E
:1013E000FF208DF80F008DF810008DF811008DF89A
:1013F00012008DF813000022102101A8FFF73AFB1C
:101400008DF8140016208DF81500FF210448FEF712
:1014100048FF122101A804F0E1F80EB010BD000051
:10142000DC06002030B5044604254FF4302000F0DF
:101430006FF80546042D17D10C48006940F00200F2
:101440000A49086108464461006940F040000861AB
:101450004FF4302000F05CF805460448006941F67E
:10146000FD71084001490861284630BD0020024056
:1014700004200B49C96801F0010109B101200EE007
:101480000749C96801F0040109B1022007E00449D5
:10149000C96801F0100109B1032000E00420704781
:1014A000002002400348006940F0800001490861C3
:1014B000704700000020024070B504460D46042627
:1014C000F00200F025F80646042E11D10948006903
:1014D00040F00100074908612580F00200F018F88B
:1014E00006460448006941F6FE710840014908615A
:1014F000304670BD0020024002480349486003485E
:10150000486070472301674500200240AB89EFCD5A
:1015100000B502460423FFF7ABFF034603E0FFF7E5
:10152000A7FF0346521E012B01D1002AF7D102B9B1
:101530000523184600BD2DE9F0410246002500268E
:10154000002000230024002791F803C00CF00F05B1
:1015500091F803C00CF0100CBCF1000F03D091F80F
:1015600002C04CEA050591F800C0BCF1000F31D073
:10157000146800202BE04FF0010C0CFA00F3B1F8D6
:1015800000C00CEA03069E4220D183004FF00F0CEE
:101590000CFA03F7BC4305FA03FC4CEA040491F887
:1015A00003C0BCF1280F06D14FF0010C0CFA00FC6F
:1015B000C2F814C00AE091F803C0BCF1480F05D18D
:1015C0004FF0010C0CFA00FCC2F810C0401C0828B7
:1015D000D1D31460B1F800C0BCF1FF0F34DD546802
:1015E00000202EE000F1080C4FF0010808FA0CF37F
:1015F000B1F800C00CEA03069E4221D183004FF0EF
:101600000F0C0CFA03F7BC4305FA03FC4CEA040484
:1016100091F803C0BCF1280F05D100F1080C08FABD
:101620000CF8C2F8148091F803C0BCF1480F07D140
:1016300000F1080C4FF0010808FA0CF8C2F810800D
:10164000401C0828CED35460BDE8F081F0B50A46AE
:10165000002300240021002500F00046B6F1004FD1
:1016600002D11D4EF16901E01B4E7168C0F30345C4
:1016700083B200F44016B6F5401F08D121F0706126
:10168000154E766826F07066134F7E6012E000F407
:101690008016B6F5801F06D1032606FA05F4A1438D
:1016A00041F0706106E0460D360103FA06F6B143DB
:1016B00041F0706122B1460D360103FA06F631435E
:1016C00000F00046B6F1004F02D1034EF16101E097
:1016D000014E7160F0BD0000000001400246002094
:1016E00093680B400BB1012000E00020704741617E
:1016F000704701617047000010B504461B48007830
:1017000064301B49486119484078401E08611748F9
:101710008078C8601548C0788860144800794860AF
:101720001248407908600846FEF760FD11490860DC
:1017300008460068204408600D490E48FEF710FD79
:101740000B48007D6438094908700948007C401C3A
:1017500048700748007B88700548007AC8700448C4
:101760000079087102480078487110BD38000020E7
:10177000FC0200204000002070B50024002516E087
:101780004FF400710C48FFF7B2FF6006040E2021F1
:101790000948FFF7A3FF10B1601CC4B200E000BF0E
:1017A0004FF400710448FFF7A4FF681CC5B2082D70
:1017B000E6DB204670BD0000000C0140F0B5C1B072
:1017C00005460F461646002400BF0CE0285D0011B8
:1017D00001AA02F81400285D00F00F016000401C0F
:1017E0001154601C84B2B442F0DB002407E001A96C
:1017F0000A5D381904A104F085F9601C84B27000F8
:10180000A042F4DC41B0F0BD2558000000BFFEE767
:101810000146CA1701EB92729210A1EB820292B9B3
:10182000642091FBF0F200FB121050B94FF4C87025
:1018300091FBF0F200FB121008B901207047002064
:10184000FCE70120FAE70020F8E7000010B5134894
:1018500090F88B01012806D002280AD003280ED068
:10186000042818D111E00E4A0E49012004F06AFD47
:1018700012E00D4A0D49022004F064FD0CE00C4A10
:101880000C49032004F05EFD06E00B4A0B490420DE
:1018900004F058FD00E000BF00BF10BD5A06002054
:1018A00000D8000800C8000800DC000800CC0008D0
:1018B00000E0000800D0000800E4000800D40008A0
:1018C00008B50121042001F061FA0120ADF8000003
:1018D00048208DF8030002208DF802006946024876
:1018E000FFF729FE08BD00000008014010B50446BE
:1018F00014B10120244908702348007868B34FF4DC
:1019000000612248FFF7EAFE50B101211F48FFF7AE
:10191000E5FE28B14FF400411C48FFF7DFFEE0B9B7
:10192000052004F09BFA0020174908704FF400616D
:101930001648FFF7D3FE08B9012010BD0121134856
:10194000FFF7CCFE08B90220F7E74FF400410F483B
:10195000FFF7C4FEB0B90320EFE74FF400610B4876
:10196000FFF7BCFE01280DD101210848FFF7B6FEA4
:10197000012807D1C1030548FFF7B0FE012801D1B6
:10198000014908700020D8E75600002000080140F7
:1019900010B50120FFF7AAFF022827D164211848BB
:1019A00041810021C17117484088401C1549488079
:1019B000002113484181017312484088322815D113
:1019C00004F0A1FC00201049C87001200F494870A4
:1019D00000200F494870FEF7FDFEFEF7ABFE012028
:1019E0000C4981F88201002006494880094890F896
:1019F000820120B100210248C171FEF705FF10BD30
:101A00003C1500204E0000207C000020E80700204C
:101A1000201500205A06002008B50121082001F0F9
:101A2000B5F910208DF803004FF4E040ADF8000048
:101A300002208DF8020069460448FFF77CFD4FF450
:101A4000E0410248FFF755FE08BD0000000C0140D0
:101A500010B5042000F030F84FF47A7004F0FEF96D
:101A6000042000F001F810BD012806D0022808D09B
:101A700003280BD0042818D10DE001210C4A116075
:101A800014E001210A4A121D11600FE00121084AE9
:101A9000083211600AE00121054A1160054AC2F8C6
:101AA000B411034A0832116000E000BF00BF704764
:101AB000B081214200802142012806D0022808D0AE
:101AC00003280BD0042818D10DE000210C4A116026
:101AD00014E000210A4A121D11600FE00021084A9B
:101AE000083211600AE00021054A1160054AC2F877
:101AF000B411034A0832116000E000BF00BF704714
:101B0000B08121420080214200BFFEE710B500F005
:101B10001FFCFEF765FE00201F49088000211F48BA
:101B200080F85E1300201E4908701C4948708870B8
:101B30001C49087048710021184880F85B13002088
:101B40001849087148738871174981F8E5011749E8
:101B5000087017498870C87010490870154981F8D5
:101B6000810181F88C01144981F801020021134898
:101B7000417101720173C171017600200D4981F834
:101B80008C0181F88D0101200B4981F802020020AF
:101B900081F8040210BD000066000020E807002064
:101BA0003400002020150020621500206F00002066
:101BB0007C0000205A060020900000203C150020E8
:101BC00070B506461422FB49FB4802F083F8142244
:101BD000F8496439F748FFF7F1FD2822F549323911
:101BE000A1F1320002F016FBF4A1F748FEF789FBE1
:101BF0000020F64908700FE0EE483238F3490978C2
:101C0000491D415CF04AF148007808301154EF4812
:101C10000078401CED490870EC4800780F28EBDB99
:101C2000E448643890F83600E749C875E1486438FC
:101C300090F832000876DF48643890F83300487630
:101C4000DC48643890F834008876DA48643890F8D4
:101C50003500C876DE48007800287DD00020DC49B9
:101C60000870DC480078112877D2DFE800F009100E
:101C70001A2C3B4A8493A5B7F9F8F7F6F5F4F3006C
:101C80000120D54908603220D449088020E3012092
:101C900003F0B4FED2A003F0E1FE3220CF49088069
:101CA00016E3C8A1CF48FEF713FB58B1012003F09B
:101CB000A5FE0020CC490870CCA003F0CFFE322056
:101CC000C649088004E3BFA1C648FEF701FB40B146
:101CD000012003F093FECDA003F0C0FE3220BF49E7
:101CE0000880F5E2B7A1BF48FEF7F2FA40B1012043
:101CF00003F084FEC7A003F0B1FE6420B74908805A
:101D0000E6E2C7A1B748FEF7E3FA38B3002418E0CB
:101D1000A01EB449085C4E2811D1601E085C3A2808
:101D20000DD1002506E02819AE49085CBE4948558A
:101D3000681CC5B20F2DF6DB3020BB49C873601C90
:101D4000C4B2322CE4DB012003F058FEB7A003F04C
:101D500085FE3220A14902E0BBE2AFE201E008804B
:101D600008E0012003F04AFEAAA003F077FE042059
:101D700098490870ACE2B0A19A48FEF7A9FA40B1C0
:101D8000012003F03BFEB3A003F068FE322093492C
:101D9000088000BFB2A19348FEF79AFA58B100201C
:101DA00091490870012003F029FEB0A003F056FE0F
:101DB00032208A4908808BE2AFA18A48FEF788FA70
:101DC00058B1002088490870012003F017FEABA02D
:101DD00003F044FE32208149088079E2AAA18148BB
:101DE000FEF776FA68B100207F490870087001207C
:101DF00003F004FEA7A003F031FE322077490880EB
:101E00004AE0012003F0FAFD9CA003F027FE082021
:101E10007049087074480078401C7349087008467F
:101E200000781E2838DD9D4890F80402012818D15A
:101E30009BA2002100F0A0FD9DA20221012000F044
:101E40009BFD9FA20421012000F096FD1420614912
:101E500008703DE2ECE18CE198E076E03EE02EE0B7
:101E60001BE08E4890F80402012812DA8B4890F8A3
:101E70000402401C894981F8040200F069FA00203C
:101E8000554908604FF4FA7003F0E8FF002051490B
:101E900008700020544908701AE28EA15148FEF7DC
:101EA00017FA58B1002050490870012003F0A6FD30
:101EB00089A003F0D3FD14204849088008E289A1D5
:101EC0004848FEF705FA40B1012003F097FD87A0CE
:101ED00003F0C4FD322041490880F9E185A1414861
:101EE000FEF7F6F980B3002423E0A01E3D49085C0C
:101EF00051281CD1601E085C3A2818D1601C085C6F
:101F00002C2809D00846005D474908743549601CF3
:101F1000085C454948740AE03249601C085C2C287A
:101F200005D13020404908742E48005D4874601C7B
:101F3000C4B2142CD9DB012003F060FD6FA003F0C4
:101F40008DFD052025490880C2E16FA12548FEF7D7
:101F5000BFF960B1012003F051FD6EA003F07EFDDA
:101F600000202149087032201C4908800DE00C2017
:101F7000184908701C480078401C1B4908705FA075
:101F800003F06CFD322015490880A1E164A11548D9
:101F9000FEF79EF960B1002013490870012003F09C
:101FA0002DFD62A003F05AFD32200C490880DFE0CD
:101FB000C2E00000BE06002000F0000841542B4E95
:101FC0004344503D00000000340300204400002042
:101FD0003200002034000020B001214230000020F7
:101FE000415400005C0300203500002041542B4E7A
:101FF0004344503D3138302E3130312E3134372E7C
:102000003131352C353638330000000041542B4334
:10201000474D520041542B4347534E3D3100000081
:102020002B4347534E3A00009502002041542B4E5B
:10203000434F4E4649473F002B4E434F4E4649477C
:102040003A4155544F434F4E4E4543542C545255EC
:102050004500000041542B4E42414E443F000000D9
:102060002B4E42414E443A350000000041542B4370
:1020700046554E3D310000004F4B000041542B436C
:10208000474154543F0000002B43474154543A31D8
:102090000000000041542B43494D490090000020AE
:1020A00053494DBFA8D7A4CDF8CAA7B0DCA3A1005F
:1020B000C7EBBCECB2E953494DBFA8A3A100000097
:1020C000C8B7C8CFCEDECEF3BAF3C7EBD6D8C6F4C6
:1020D000000000003436300041542B4E4343494445
:1020E000000000002B4E43434944000041542B4361
:1020F000535100002B4353513A00000041542B43ED
:10210000455245473F0000002B43455245473A3072
:102110002C31000041542B4353434F4E3F000000ED
:102120002B4353434F4E3A302C31000041542B4344
:10213000434C4B3F000000000D2067490870012010
:1021400003F05CFCAFF2340003F088FC32206349FA
:10215000088063480078401C614908700846007890
:10216000642805DD01215F48C17100205C490870C9
:10217000AEE05DA15E48FEF7ABF8002857D05C48A2
:10218000007A5C4908705A48407A48705848C07ACA
:1021900088705748007BC8705548807B0871544848
:1021A000C07B48715248407C88715148807CC8711E
:1021B0004F48007D08724E48407D48724C48C07DB3
:1021C00088724B48007EC8720C220846FEF722FA3D
:1021D00000204949087019E047480078012101EBC7
:1021E00040004449095C44480078424A12F8100013
:1021F00000EB800001EB4000C1B240483E4A12783B
:1022000081543D480078401C3B4908703A480078AA
:102210000628E1DB4FF4E140FFF76EFA012003F0FE
:10222000EDFB37A003F01AFC64202C4908804FE036
:10223000AFF2BC112E48FEF74BF830B3012E25D17A
:1022400012223249324801F059FD0120314981F80A
:10225000010200203049C870012003F0CFFB642048
:102260001E4908801221294803F08EFA00F002FB73
:102270002AA20021012000F07FFB2DA204210120D1
:1022800000F07AFB0320FEF70BFA16E0022E14D1C1
:1022900012221E491E4801F031FD00201E49C8705F
:1022A00001208870C8740020264981F88C01012023
:1022B00003F0A4FB64200949088009E000200749D5
:1022C000088005490870204908702049087000BF3F
:1022D00000BF0348007870BD3400002030000020AB
:1022E000350000203C1500202B43434C4B3A0000A6
:1022F0005C03002028030020440000203800002058
:1023000041542B4E4E4D493D3000000095020020B7
:1023100000F800089000002020150020CFB5CDB3B4
:10232000B3F5CABCBBAFB3C9B9A6212100000000F8
:10233000B3A4B0B4B0B4BCFCC6F4B6AFC0B6D1C0A0
:10234000000000005A060020320000203300002068
:1023500000200549087001200449087004490870EC
:10236000002004490880704734000020320000201B
:10237000330000203600002008B50121042000F0C1
:1023800005FD10208DF803004FF48850ADF80000D3
:1023900002208DF8020069460448FFF7CCF84FF49C
:1023A00088510248FFF7A3F908BD0000000801406A
:1023B00010B50448C07820B101200349087000F02E
:1023C00005F810BD201500209000002010B504462F
:1023D0000648007840B10648007828B1002004493A
:1023E00008702046FFF7ECFB10BD00003200002013
:1023F0003300002010B5C4B0D14890F88C010128FA
:102400004BD1D0490870D0A003F046FBC82003F0A0
:1024100025FDD1A003F040FB462220A9D14801F0C0
:1024200059FC3C2201A9D04801F054FC002405E0ED
:1024300020A8005DCD490855601CC4B28C2CF7DB88
:10244000002405E001A8005DC9490855601CC4B21C
:10245000782CF7DBC548FDF74DFF0E21B0FBF1F0FE
:102460004006000EC349C8768C22C349BF4801F01C
:102470001BFFFFF76DFF0020C04908604FF47A7022
:1024800003F0ECFC0120BE49C1F8B001AC4890F863
:102490008C01401CAA4981F88C01A94890F88D0153
:1024A00001280AD1A64890F88C01022805D1012004
:1024B000A44908700220FFF789FFB248407901283B
:1024C0005CD1462220A9B04801F004FC3C2201A9BD
:1024D000AE4801F0FFFB002405E020A8005DA34901
:1024E0000855601CC4B28C2CF7DB002405E001A861
:1024F000005D9F490855601CC4B2782CF7DB9B48EF
:10250000FDF7F8FE0E21B0FBF1F04006000E9949F0
:10251000C8760846C07E0A2813DB954890F83C0030
:1025200030281CD1924890F83D00302817D19048AF
:1025300090F83E00302812D18D4890F83F003028A6
:102540000DD100208B498870C874642003F086FC8C
:102550008FA003F0C6FE00218A4841710EE08C2254
:102560008549824801F0A0FE012082498870C87424
:1025700084484079401CC1B2824841718148407909
:1025800003285CD1462220A9844801F0A3FB3C2209
:1025900001A9834801F09EFB002405E020A8005D0E
:1025A00072490855601CC4B28C2CF7DB002405E08E
:1025B00001A8005D6E490855601CC4B2782CF7DB99
:1025C0006A48FDF797FE0E21B0FBF1F04006000EC1
:1025D0006849C8760846C07E0A2813DB644890F82C
:1025E0003C0030281CD1624890F83D00302817D1BB
:1025F0005F4890F83E00302812D15D4890F83F00C7
:1026000030280DD100205B498870C874642003F025
:1026100025FC5FA003F065FE00215A4841710EE0E1
:102620008C225549514801F03FFE012051498870E4
:10263000C87454484079401CC1B252484171514855
:10264000407905285CD1462220A9564801F042FB7A
:102650003C2201A9544801F03DFB002405E020A8DC
:10266000005D42490855601CC4B28C2CF7DB002485
:1026700005E001A8005D3E490855601CC4B2782CF5
:10268000F7DB3A48FDF736FE0E21B0FBF1F04006CD
:10269000000E3849C8760846C07E0A2813DB344845
:1026A00090F83C0030281CD1314890F83D0030288B
:1026B00017D12F4890F83E00302812D12C4890F8BE
:1026C0003F0030280DD100202A498870C87464204A
:1026D00003F0C4FB2EA003F004FE00212948417141
:1026E0000EE08C222449214801F0DEFD0120214921
:1026F0008870C87423484079401CC1B22148417198
:102700002048407907280CD100201A498870C874E5
:10271000642003F0A3FB1EA003F0E3FD0021194891
:1027200041711448C07C48B1FEF754F8FEF702F836
:102730001049887EFEF72CFAFEF772FC44B010BDFB
:102740005A0600209000002041542B444953434F27
:102750004E4E45435400000041542B524F4C453DD2
:102760004D00000000C8000800D80008201000201C
:102770001F1100202015002047140020B001214225
:10278000000021423C15002000CC000800DC0008BD
:10279000B3ADB1EDBDE1CAF80000000000D0000803
:1027A00000E0000800D4000800E4000800B5A1B073
:1027B0000AA16846FDF7A5FD0B496846FDF77CFDBB
:1027C00082210948FDF76DFD82210748FDF769FD6B
:1027D000684603F043F921B000BD000041542B4E80
:1027E0004D47533D35392C00C10A00207047000089
:1027F00070B5002100230F22C47804B3154C24685F
:1028000004F4E064C4F5E064210AC1F10403CA40A1
:10281000447804FA03F184781440214309010E4CF2
:102820000678A155047804F01F050124AC40057812
:102830006D11AD0005F1E025C5F8004109E004780F
:1028400004F01F050124AC40044D0678761145F8CC
:10285000264070BD0CED00E000E400E080E100E007
:1028600002490143024A1160704700000000FA0566
:102870000CED00E070B5002418E004F1B000002178
:1028800000F0D4F90021102000F0D0F9002102203E
:1028900000F0CCF9002505E00121002000F0C6F988
:1028A000681CC5B2802DF7DB601CC4B2082CE4DBC9
:1028B00070BD10B504461CB90021A62000F0B6F981
:1028C000012C03D10021A72000F0B0F910BD10B5F4
:1028D00004463CB90021C82000F0A8F90021A1203D
:1028E00000F0A4F9012C07D10021C02000F09EF9CE
:1028F0000021A02000F09AF910BD2DE9F041064614
:102900000C4615464FF0000813E0E1B2F0B200F0BB
:10291000C9F9002706E02878012100F087F96D1C2D
:10292000781CC7B2102FF6DB641C08F1010000F020
:10293000FF08B8F1020FE8DBBDE8F0812DE9F041B6
:1029400080460C461546002711E0E1B2404600F0F3
:10295000A9F9002606E02878012100F067F96D1C2E
:10296000701CC6B2082EF6DB641C781CC7B2022F9E
:10297000EBDBBDE8F08100002DE9F0478EB00646A4
:102980008A4615460024A6E0285DB02836DB285D7F
:10299000F72833DC601C285CA1282FDB285DB038C9
:1029A0005E2148434F490860601C285C00F2AD205E
:1029B000096808444B4908600846006840010860FF
:1029C00008460068C0F3074708460088C0F3072898
:1029D000084690F80090202006AB4A4641460090F9
:1029E000384600F077F906AA51463046FFF785FFD2
:1029F00006F11000C6B2A01CC4B26CE0285DA1288C
:102A000035DB285DA32832DC601C285CA1282EDB86
:102A1000285DA1385E21484332490860601C285C6B
:102A2000A138096808442F49086008460068400139
:102A3000086008460068C0F3074708460088C0F3EE
:102A40000728084690F80090202006AB4A464146E9
:102A50000090384600F03EF906AA51463046FFF78E
:102A60004CFF06F11000C6B2A01CC4B233E0285DD2
:102A700020282EDB285D7E282BDC285D2038194994
:102A800008600846006800010860084600681649AA
:102A900008441449086008460068C0F30747084620
:102AA0000088C0F30728084690F80090102002AB79
:102AB0004A4641460090384600F00CF902AA5146B9
:102AC0003046FFF73BFF06F10800C6B2601CC4B2F7
:102AD00001E0601CC4B2285D00283FF755AF0EB07E
:102AE000BDE8F0877800002080CF030008B5012101
:102AF000092000F04BF901214A48FEF7A7FD4FF4E9
:102B00007C70ADF8000010208DF8030003208DF8D4
:102B1000020069464448FEF70EFD4FF47C714248BE
:102B2000FEF7E7FD0121092000F030F92020ADF883
:102B3000000028208DF8030069463B48FEF7FBFCA7
:102B40000021AE2000F072F80021084600F06EF877
:102B50000021102000F06AF80021402000F066F803
:102B60000021812000F062F80021CF2000F05EF803
:102B70000021A12000F05AF80021C82000F056F8EA
:102B80000021A62000F052F80021A82000F04EF805
:102B900000213F2000F04AF80021D32000F046F841
:102BA0000021084600F042F80021D52000F03EF850
:102BB0000021802000F03AF80021D92000F036F8FA
:102BC0000021F12000F032F80021DA2000F02EF888
:102BD0000021122000F02AF80021DB2000F026F866
:102BE0000021402000F022F80021202000F01EF8F3
:102BF0000021022000F01AF800218D2000F016F8C4
:102C00000021142000F012F80021A42000F00EF89A
:102C10000021A62000F00AF80021AF2000F006F8FD
:102C200008BD000000023000000C014070B50446F1
:102C30000E4626B180211A48FEF75BFD03E0802195
:102C40001748FEF754FD40211548FEF750FD0025BA
:102C50001AE04FF400711248FEF749FD04F08000BD
:102C600028B14FF480710E48FEF743FD04E04FF4A5
:102C700080710B48FEF73BFD4FF400710848FEF7EA
:102C800038FD6400681CC5B2082DE2DB4021044811
:102C9000FEF72FFD80210248FEF72BFD70BD0000DE
:102CA000000C014070B504460D4605F1B00000214E
:102CB000FFF7BCFFA11CC1F3031141F0100000217C
:102CC000FFF7B4FFA11C01F00F000021FFF7AEFFDA
:102CD00070BD00002DE9F04780460D4616461F46A0
:102CE000DDF8209010211148FEF701FD40210F482A
:102CF000FEF7FFFC032001F0BBF9404601F0B8F9F4
:102D0000284601F0B5F9304601F0B2F9002404E09C
:102D1000FEF732FD3855601CC4B24C45F8DB10217B
:102D20000248FEF7E6FCBDE8F0870000000C014019
:102D3000014908627047000000000E42034909681B
:102D400041EA8001014A11607047000000700040B4
:102D500001460020034A52680A400AB1012000E0FF
:102D600000207047007000407047000029B1064AFB
:102D7000D2690243044BDA6104E0034AD269824318
:102D8000014BDA61704700000010024029B1064A89
:102D900092690243044B9A6104E0034A92698243B8
:102DA000014B9A6170470000001002400149086021
:102DB000704700004004424230B500210022002448
:102DC00000232D4D6D6805F00C0121B1042905D0BB
:102DD000082923D105E0294D056022E0284D056032
:102DE0001FE0254D6D6805F47012234D6D6805F4E4
:102DF0008034022505EB92421CB9224D55430560F3
:102E00000BE01D4D6D6805F400351DB11B4D55439C
:102E1000056002E01A4D5543056002E0174D05605C
:102E200000BF00BF144D6D6805F0F0010909164D93
:102E30006B5C0568DD4045600F4D6D6805F4E06131
:102E4000090A114D6B5C4568DD4085600A4D6D686F
:102E500005F46051C90A0C4D6B5C4568DD40C560E6
:102E6000054D6D6805F44041890B084D6B5CC568E4
:102E7000B5FBF3F5056130BD0010024000127A0089
:102E80000024F40000093D001C0000202C0000205C
:102E900010B501460022002300204A11012A02D168
:102EA000094C236806E0022A02D1074C236A01E09C
:102EB000054C636A01F01F02012494401C400CB1D0
:102EC000012000E0002010BD0010024000210B4A4C
:102ED00011700A4A203A82F82010012802D00428F2
:102EE00008D103E00121054A117004E00521034ADD
:102EF000117000E000BF00BF7047000020100240CA
:102F000001490860704700003C0442420249096AD6
:102F10000143014A116270470010024010B50220BF
:102F200000F0CAF8E8B10120FFF712FF70B101F01C
:102F300029FAFEF771FDFEF7C3FC01200949C870AC
:102F40000121094801720120FFF7F8FE4FF400301B
:102F5000FEF7DEF900F058FA022000F007F800F062
:102F600053FA10BD7C0000203C150020024909885E
:102F70008143014A118070470428004003480088BB
:102F800040F010000149088070470000042800400C
:102F9000034800884FF6EF710840014908807047E8
:102FA0000428004070B500260024002500F07AF8BF
:102FB00006463848B6FBF0F437480088A0423CD0BB
:102FC00035490C8040F2B27510E02846FEF720FC2F
:102FD00040B1B4F5B77F02D3A4F5B77404E0681C20
:102FE00085B206E0A4F26D14681C85B2B4F5B67F14
:102FF000EBD800BF29488580002516E0274988883E
:10300000FEF706FC30B1012D04D11D2C01D31D3C6F
:1030100009E00CE02248405DA04203D82048405D12
:10302000241A00E003E0681C85B21C2CE6D200BF25
:10303000681C1A498871601CC8711648B6FBF0F10B
:1030400000FB11644FF46160B4FBF0F013490870A9
:103050004FF46160B4FBF0F100FB11403C21B0FB88
:10306000F1F00E4948704FF46160B4FBF0F100FBE1
:1030700011403C21B0FBF1F201FB120007498870BE
:103080000B46DA799979988800F028F80349087294
:10309000002070BD805101008800002058150020DC
:1030A00080640008002103480188001F008841EA6D
:1030B000004070471C28004001460020064A128844
:1030C0000A40D0B2044A121F12880A4012B108B155
:1030D000012000E00020704704280040F0B50346BE
:1030E0000C461546642093FBF0F0C6B2642093FBB7
:1030F000F0F700FB1730C1B2132E02DD01F16400BE
:10310000C1B20846CF1701EB977701EBA707BAB218
:10311000072092FBF0F700FB172082B25719601EC0
:10312000DFF82CC01CF80000384482B2CF1701EB46
:103130009777BF10A1EB87071FB9032C01DA501E48
:1031400082B2072092FBF0F700FB1720C0B2F0BD5F
:103150007464000810B50120FFF7AEFF98B1FFF7C7
:1031600021FF1648408900280ADD14484089401E86
:1031700081B212484181408910B901210F48017381
:103180000120FFF7F3FE0220FFF796FF78B1012040
:10319000FFF7DEFD30B10120FFF7D0FD4FF4003026
:1031A000FEF7B6F80220FFF7E1FE00F02DF902204D
:1031B000FFF7DCFE00F028F910BD00003C150020F0
:1031C00029B1064A12880243044B1A8004E0034ADC
:1031D00012888243014B1A8070470000002800408B
:1031E0001CB5002401214FF0C050FFF7BFFD0120A6
:1031F000FFF79EFD0420FDF77BFA45F2550188425A
:1032000040D0FDF76DFA0120FFF760FE04E0601C7E
:10321000C4B20A2002F022FE4120FFF739FE08B9AD
:10322000FA2CF4DBFA2C01DB01201CBD4FF480707A
:10323000FFF76CFE0120FFF763FE00F0E5F800F0F9
:10324000EDF801210846FFF7BBFF00F0DDF8FFF7BE
:1032500095FE43F6FF7000F0C7F800F0D5F80120A6
:1032600036210E230222CDE900100C2140F2E3703A
:1032700000F048F8FFF78CFE45F255010420FDF7F9
:1032800045FA07E000F0CAF801210320FFF798FF94
:1032900000F0BAF800F004F8FFF784FE0020C4E75D
:1032A0000EB503208DF8000000208DF801008DF888
:1032B000020001208DF803006846FFF799FA2920E3
:1032C0008DF8000000208DF801008DF8020001202B
:1032D0008DF803006846FFF78BFA4FF40030FEF7D5
:1032E00017F84FF40030019000208DF808000820F6
:1032F0008DF8090001208DF80A0001A8FEF70EF8EC
:103300000EBD00002DE9F05F06460F469046994637
:10331000DDE90AAB002440F2B270864203DB40F6DE
:103320003300864202DD0120BDE8F09F40F2B27515
:103330000AE02846FEF76CFA10B12048044401E088
:103340001F480444681C85B2B542F2DB781EC7B240
:10335000002510E01B48405D40F2A321484304EBE8
:10336000C0143046FEF754FA18B1012D01D11648A9
:103370000444681C85B2BD42ECDBA8F1010040F2B8
:10338000A321484304EBC014C9EB4910C0EB09204A
:1033900004EB0014CAEB0A1004EB80045C44012126
:1033A0004FF0C050FFF7E2FC0120FFF7C1FC2046C0
:1033B00000F00CF800F028F80020B5E70085E201E5
:1033C0008033E101806400088051010000B50246AD
:1033D000FFF7D4FD100C03490880091D0A80FFF790
:1033E000D7FD00BD1828004000B50246FFF7C6FD16
:1033F000C2F3034003490880091D0A80FFF7C8FD96
:1034000000BD00000828004000BF0348008800F00D
:1034100020000028F9D070470428004007480088A1
:103420004FF6F77108400549088000BF034800883F
:1034300000F008000028F9D0704700000428004080
:1034400070B586B006460D463548C078B8B1012043
:103450003349487000208870022002F0CFFA02F051
:1034600036FB30A002F018FBFF213248FCF719FFB1
:1034700000202B49C87001202F49C8734EE02FA1AE
:103480002F48FCF725FF28B92EA12D48FCF720FF77
:10349000002843D018216846FCF703FF0E212B4873
:1034A000FCF7FFFE2AA16846FCF72BFF002408E08A
:1034B00060192A49095C04F10B000DF80010601C2A
:1034C000C4B20C2CF4DB002406E060192349085C2C
:1034D00023490855601CC4B20C2CF6DB002408E01C
:1034E0002048007820442049085C18490855601C91
:1034F000C4B20E2CF4DB1B4800780E30194908705A
:10350000022002F07BFA02F0E2FA684602F0C4FA06
:1035100040F6B830084908810846067006B070BD0C
:10352000E807002041542B444953434F4E4E454336
:1035300054000000C2090020201500204F4B00005D
:103540005B0400204552524F520000000F1400202F
:1035500041542B434F4E4E4543543D001F11002014
:103560001D1400206D0000202010002070B586B0D2
:1035700005460E465DA16148FCF7AAFED8B10020C1
:103580005F49088148735F4948700870012088705E
:103590001E215D48FCF785FE304600F0D1F913216D
:1035A000594802F01BF8022002F028FA42F210708B
:1035B0005349488197E05248407B00284BD0002077
:1035C0004F4948814873887148A14C48FCF780FEF8
:1035D0000028EFD14A48407C401C494948744BA020
:1035E00002F07FFE18216846FCF75BFE002408E02D
:1035F0004C48005D4C49097821444C4A5054601CA9
:10360000C4B20C2CF4DB002408E04948005D4949B1
:1036100009782144484A5054601CC4B20E2CF4DB93
:10362000414800780C3040490870424800780E301C
:10363000404908703248057002F049FA022002F051
:10364000DDF93EA002F028FAC82002F007FC3BA0FA
:1036500002F022FA47E02A488079C0B100202849C8
:103660004881887108810846407C401C487434A019
:1036700002F037FE18216846FCF713FE01202149AD
:10368000C8701F480570022002F0B8F92BE01C48F2
:10369000407950B100201A49887148814871012051
:1036A00002F0ACF9FFF782F81DE02BA12B48FCF7E4
:1036B0000FFE58B101201349C87011480570C82089
:1036C00002F0CCFB012002F099F90CE024A1234880
:1036D000FCF7FEFD38B1012002F090F90120094904
:1036E000C8700748057006B070BD000041542B43F8
:1036F0004F4E4E4543544544000000005B040020FB
:1037000020150020E807002029140020C1ACBDD3FB
:10371000B1EDB6CBCAA7B0DC2CC1ACBDD3CFC2D201
:10372000BBB8F6001D1400206B0000201013002011
:103730000F1400206C0000201112002041540000E2
:10374000B6C1CAFDBEDDCAA7B0DC2CC1ACBDD3CFAB
:10375000C2D2BBB8F60000004F4B00005C03002053
:103760004552524F5200000010B58EB032213648FB
:10377000FCF797FD122201A9344800F0ABFA12229F
:10378000314901A800F090FD68208DF81800202034
:103790008DF81900002405E0AA21A01C06AA1154E6
:1037A000601CC4B2072CF7DB32208DF821000D20FD
:1037B0008DF8220090208DF823002F208DF8240012
:1037C00000208DF82500204800788DF826001E483E
:1037D00040788DF827001C4880788DF828001A481A
:1037E000C0788DF82900184800798DF82A0016480D
:1037F00040798DF82B00144880798DF82C00124800
:10380000C0798DF82D001048007A8DF82E00002028
:103810008DF82F000022172106A8FDF72BF98DF84F
:10382000300016208DF83100FF210948FCF739FDE2
:103830001A2106A801F0D2FE00200549823981F83C
:1038400084010EB010BD0000C702002000F800087F
:10385000DC06002010B58EB014223749374800F03E
:1038600039FA1422344964393348FDF7A7FF682038
:103870008DF8040020208DF80500002405E0AA2121
:10388000A01C01AA1154601CC4B2072CF7DB8320D2
:103890008DF80D001A208DF80E0091208DF80F0084
:1038A0000B208DF8100000208DF811002C208DF8D1
:1038B00012002148643890F864008DF813001E4807
:1038C000643890F865008DF814001B48643890F84F
:1038D00066008DF815001848643890F867008DF878
:1038E00016002C208DF81700002408E01248611DF6
:1038F000415C04F1140001AA1154601CC4B20F2CE5
:10390000F4DB00208DF827008DF828000022232109
:1039100001A8FDF7AFF88DF8290016208DF82A00D0
:10392000FF2105481E30FCF7BCFC272101A801F04F
:1039300055FE0EB010BD0000BE06002000F00008CD
:1039400070B505461E211648FCF7ABFCFE20144955
:103950000870487088706820C870102008710024B2
:1039600007E0281B0F49095C601D0D4A1154601CBB
:10397000C4B2072CF5DB0120094908730320487302
:10398000902088732F20C8730020087403220E2112
:103990000348FDF76FF8024948741620887470BD1B
:1039A000291400204714002010B5462243494448FA
:1039B00000F090F93C224349434800F08BF93C2247
:1039C0004249434800F086F946224249424800F005
:1039D00081F93C224149424800F07CF946224149A4
:1039E000414800F077F93C224049414800F072F923
:1039F00046224049404800F06DF940A002F071FCB9
:103A000044A002F06EFC44A002F06BFC0E228C215C
:103A10002A4801F0D3FE0C2278212A4801F0CEFE7C
:103A20003CA002F05EFC3FA002F05BFC0E228C2169
:103A3000284801F0C3FE0C227821244801F0BEFE84
:103A400034A002F04EFC3AA002F04BFC0E228C2176
:103A5000244801F0B3FE0C227821204801F0AEFE8C
:103A60002CA002F03EFC35A002F03BFC0E228C2183
:103A70001C4801F0A3FE0C227821184801F09EFE9C
:103A8000002405E00D48005D2F490855601CC4B2B4
:103A90008C2CF7DB002405E00A48005D2B49085513
:103AA000601CC4B2782CF7DB8C222949264800F030
:103AB000FBFB01202749C87010BD00002E0C002020
:103AC00000C80008480B002000D80008140D002092
:103AD00000DC00088C0D002000CC0008180E00202F
:103AE00000E00008900E002000D000081C0F00200D
:103AF00000E40008940F002000D40008B6C1B5BD52
:103B0000B5C4B1EDBAC5BACD4D4143B5D8D6B73A73
:103B1000000000000D0A0000B5DA312D3130B8F692
:103B2000A3BA0000B5DA31312D3230B8F6A3BA00AD
:103B3000B5DA32312D3330B8F6A3BA00B5DA333105
:103B40002D3430B8F6A3BA00201000201F11002039
:103B5000471400202015002030B5ADF5177D05462F
:103B6000482153A8FCF79DFB402143A8FCF799FB93
:103B700090211FA8FCF795FB7C216846FCF791FB80
:103B8000062D3BD2DFE805F03A030E19242F8E22D2
:103B90001FA9474800F09EF87A226946454800F080
:103BA00099F82CE08E221FA9434800F093F87A225E
:103BB0006946424800F08EF821E08E221FA9404855
:103BC00000F088F87A2269463E4800F083F816E053
:103BD0008E221FA93C4800F07DF87A2269463B48B6
:103BE00000F078F800BF30228E211FA8FCF752FBAE
:103BF00030227A216846FCF74DFB00E000BF00BF91
:103C00008E2253A91FA800F04FFB7A2243A96846D1
:103C100000F04AFB68208DF8940120208DF8950172
:103C2000002405E0AA21A01C65AA1154601CC4B29E
:103C3000072CF7DB35208DF89D0186208DF89E013D
:103C400090208DF89F015F208DF8A00100208DF855
:103C5000A101002407E053A8015D04F10E0065AA4C
:103C60001154601CC4B2462CF5DB002407E043A8C5
:103C7000015D04F1540065AA1154601CC4B23C2CCF
:103C8000F5DB8DF824520022902165A8FCF7F2FEA6
:103C90008DF8250216208DF82602FF210C48FCF72E
:103CA00000FB932165A801F099FC0DF5177D30BD4F
:103CB00000C8000800D8000800CC000800DC00089C
:103CC00000D0000800E0000800D4000800E400086C
:103CD000DC06002030B503460C461546002207E0FE
:103CE000184600F008F824F812009B1C501C82B201
:103CF000AA42F5DB30BD0146088870472DE9F05F28
:103D000080468A461746B8F1006F02D33348804593
:103D100001D3BDE8F09FFDF7EFFBA8F1006B4FEA80
:103D20009B25CBF34809C9F50074A74200DC3C464B
:103D30004DE04FF0006101EB85208A142849FFF720
:103D4000C9FF00260BE009EB0600254931F81000F9
:103D50004FF6FF71884200D003E0701C86B2A64285
:103D6000F1DB00BFA6421BDA4FF0006101EB8520BA
:103D7000FDF758FB002608E03AF8160006EB0901AB
:103D8000174A22F81100701C86B2A642F4DB4FF0ED
:103D9000006101EB85208A14114900F023F804E04A
:103DA00022465146404600F01DF8A74200D10FE0E0
:103DB0006D1C4FF000090AEB440AA044381B87B27F
:103DC000B7F5007F02DD4FF4007400E03C46B0E739
:103DD00000BFFDF767FB00BF9BE700000000010884
:103DE0004A1700202DE9F04105460E4617460024EB
:103DF00007E036F814102846FDF75EFBAD1C601C8A
:103E000084B2BC42F5DBBDE8F081704710B54FF4D9
:103E1000A060FEF725FD4FF4165000F01DFF4FF493
:103E2000E13001F085FB4FF4E13001F04FFC41F24D
:103E3000BF21632000F04CFB40F2DF11632000F053
:103E4000D7FB01F0E9FFFDF7E7FDFDF739FDFEF7D0
:103E500093FAFCF775FCFDF7FBFDFDF757FEFFF746
:103E6000BFF9FFF71DFA142006498876FFF79CFD7D
:103E7000FCF7FCFB0120044908700020034908708E
:103E800010BD000020150020490000206E00002019
:103E90002DE9F04387B006460F4690469946002428
:103EA0000025494601A802F01DF848A103A8FCF727
:103EB00028FA01A903A8FCF7FFF900BF17E0A01E2C
:103EC0004649085C4A2810D1601E085C58280CD16D
:103ED000002508E02046611CCCB24049085C4049FE
:103EE0004855681CC5B20E2DF4DB601CC4B2322CE0
:103EF000E5DB3B493B48FCF7EBF9002848D10024BF
:103F000018E0A01E3549085C4A2811D1601E085CE3
:103F100058280DD1002509E02046611CCCB22F495C
:103F2000085CE9192F4A5054681CC5B20E2DF3DB0A
:103F3000601CC4B23C2CE4DB002426E0201F27498F
:103F4000085C4D281FD1E01E085C41281BD1A01E33
:103F5000085C432817D1601E085C3D2813D100255A
:103F600009E02046611CCCB21C49085CA9191E4A14
:103F70005054681CC5B20C2DF3DB022001F03EFD4D
:103F800003A801F089FD601CC4B23C2CD6DB19E00B
:103F900013491448FCF79CF9A0B11448006808B90B
:103FA000012000E0002011490860022001F026FDF8
:103FB0000E210B48FCF775F903A801F06DFD0C48C4
:103FC00080F8008007B0BDE8F083000041542B5317
:103FD00043414E3A525353493D2D00005B040020AB
:103FE000F7110020201000201F110020B481214271
:103FF0006F00002010B588B068208DF800002020E8
:104000008DF80100002405E0AA21A01C0DF8001085
:10401000601CC4B2072CF7DB33208DF809000520A3
:104020008DF80A0090208DF80B003F208DF80C00D1
:1040300000208DF80D00BB208DF80E0000208DF8BB
:104040000F00002210216846FCF714FD8DF81000C7
:1040500016208DF81100FF210448FCF722F91221E7
:10406000684601F0BBFA08B010BD0000DC06002075
:1040700070B5044600251BE04FF400710E48FDF7B3
:1040800036FB04F0800028B14FF480710A48FDF738
:1040900030FB04E04FF480710748FDF728FB600611
:1040A000040E4FF400710448FDF723FB681CC5B2F1
:1040B000082DE1DB70BD0000000C014010B500F0E0
:1040C00001F810BD0CB50020019000903348006845
:1040D00040F480303149086000BF3048006800F487
:1040E000003000900198401C0190009818B9019888
:1040F000B0F5A06FF1D12948006800F4003010B18C
:104100000120009001E0002000900098012843D198
:104110002348006840F01000214908600846006804
:1041200020F0030008600846006840F001000860C5
:104130001A4840681949486008464068486008467F
:10414000406840F4806048600846406820F47C1075
:1041500048600846406840F4A0204860084600686F
:1041600040F08070086000BF0C48006800F00070EC
:104170000028F9D00948406820F00300074948604A
:104180000846406840F00200486000BF03484068AD
:1041900000F00C000828F9D10CBD0000001002400E
:1041A0000020024010B588B068208DF80000202063
:1041B0008DF80100002405E0AA21A01C0DF80010D4
:1041C000601CC4B2072CF7DB95208DF80900032092
:1041D0008DF80A00B0208DF80B0019208DF80C0026
:1041E00000208DF80D0000220E216846FCF742FCED
:1041F0008DF80E0016208DF80F00FF210448FCF703
:1042000050F81021684601F0E9F908B010BD00002F
:10421000DC06002070B503461446002200203FE073
:104220001D5C412D06DB1D5C462D03DC1D5C373D0E
:104230008D540CE01D5C612D06DB1D5C662D03DCDE
:104240001D5C573D8D5402E01D5C303D8D54451C76
:104250005D5D412D0BDB451C5D5D462D07DC451C7E
:104260005D5D373D8E5C45EA06158D5416E0451CB4
:104270005D5D612D0BDB451C5D5D662D07DC451C1E
:104280005D5D573D8E5C45EA06158D5406E0451C84
:104290005D5D303D8E5C45EA06158D54521C801CD8
:1042A000651E8542BCDC70BD30B50346002400BFEE
:1042B0003DE01878302807DB1878392804DC1878B6
:1042C0000007000E087010E01878412808DB187805
:1042D000462805DC1878C01F0007000E087004E0AF
:1042E0001878C01F0007000E08705B1C1878302873
:1042F00008DB1878392805DC08781D78303D28431C
:10430000087010E01878412808DB1878462805DC8A
:104310000D781878373805430D7004E00D7818785B
:10432000573805430D705B1C491CA01C84B2944295
:10433000BFDB154602EBD570C0F34F0030BD04283B
:1043400008D14FF0E021096941F004014FF0E0226B
:10435000116107E04FF0E021096921F004014FF0FD
:10436000E02211617047000000B500F0C9FB04486D
:10437000006808B9012000E000200149086000BD84
:10438000B081214210B51348006840F00100114986
:10439000086008464068104908400E4948600846D1
:1043A00000680E4908400B4908600846006820F480
:1043B000802008600846406820F4FE0048604FF402
:1043C0001F008860FFF77AFE4FF000600449086024
:1043D00010BD0000001002400000FFF8FFFFF6FED5
:1043E00008ED00E010B501212D4800F040F900284B
:1043F00055D001212A4800F02BF92A4800880028CE
:1044000011DD28480088401E26490880084600889B
:1044100048B925480078401C2349087001202349E9
:1044200008702349087023480088002813DD2148BC
:104430000088401E1F4908800846008858B900209F
:104440001D4908600120FDF70FFB0220FDF70CFB62
:104450000320FDF709FB19480088002811DD1748E3
:104460000088401E154908800846008848B914484D
:104470000078401C12490870012012490870124946
:10448000087012480089002809DD10480089401E84
:104490000E4908810846008908B90120487310BDFB
:1044A00000040040300000203400002032000020D2
:1044B0003300002036000020B001214258000020C7
:1044C0005C0000205B0000205A0000202015002026
:1044D0007FB505460C4601210220FEF747FCADF8EA
:1044E0000850ADF804400020ADF80A001020ADF8E7
:1044F000060001A90D4800F0D5F8012211460B482D
:1045000000F0C6F81D208DF8000000208DF8010095
:1045100002208DF8020001208DF803006846FEF7A6
:1045200067F90121014800F096F87FBD00040040C2
:1045300010B50121294800F09AF800284DD001213A
:10454000264800F085F826484089002809DD2448DF
:104550004089401E224948810846408908B9012007
:1045600088711F48406948B11D484069401E1C4978
:1045700048610846406908B9012008761948008852
:10458000002809DD17480088401E164908800846A3
:10459000008808B9012088701348B0F88801002805
:1045A0000DDD1148B0F88801401E0F49A1F88801BF
:1045B0000846B0F8880110B9012081F88A010B483B
:1045C000406950B109484069401E084948610846A1
:1045D000406910B901210548017610BD000800406E
:1045E000201500207C0000205A0600203C150020E9
:1045F0007FB505460C4601210420FEF7B7FBADF858
:104600000850ADF804400020ADF80A001020ADF8C5
:10461000060001A90D4800F045F801210B4800F003
:104620001AF801221146094800F032F81E208DF8D0
:10463000000000208DF8010002208DF8020001200A
:104640008DF803006846FEF7D3F87FBD00080040F0
:10465000CA430282704721B1028842F001020280FF
:1046600004E002884FF6FE731A400280704730B5AE
:104670000246002000230024158A05EA01039589DB
:1046800005EA010413B10CB1012000E0002030BDA7
:104690001AB183890B43838102E083898B43838131
:1046A00070470000002202881D4B98420ED01D4B1F
:1046B00098420BD0B0F1804F08D01B4B984205D0E8
:1046C0001A4B984202D01A4B984204D14FF68F737E
:1046D0001A404B881A43174B984207D0164B984202
:1046E00004D04FF6FF431A40CB881A4302808B88D0
:1046F00083850B8803850A4B98420BD0094B98425F
:1047000008D00E4B984205D00D4B984202D00D4B6D
:10471000984201D10B7A03860123838270470000FF
:10472000002C01400034014000040040000800401B
:10473000000C004000100040001400400040014008
:10474000004401400048014070B586B00646002490
:1047500000253146684601F0C5FBCAA102A8FBF757
:10476000D0FD694602A8FBF7A7FDCA4800780028DB
:1047700072D00020C7490870FCF78CF9C648007851
:10478000C8B9FF21C548FBF78CFDD821C448FBF709
:1047900088FD0E21C348FBF784FD022001F02EF9AD
:1047A00002A801F079F90020BF490870BF490870DC
:1047B0000120B9490870B84800780028D8D0BB4813
:1047C0000078401CB94908700846007813286ED25A
:1047D000DFE800F06D0A11181F262D343B434A51C3
:1047E000585F666E757C8300502300221146104688
:1047F000FFF74EFB42E1502301220E210C20FFF770
:1048000047FB3BE1502302221C211820FFF740FB0D
:1048100034E1502303222A212420FFF739FB2DE124
:104820005023042238213020FFF732FB26E15023A9
:10483000052246213C20FFF72BFB1FE150230622D7
:1048400054214820FFF724FB18E15023072262215E
:104850005420FFF71DFB11E111E1502308227021C4
:104860006020FFF715FB09E1502309227E216C200F
:10487000FFF70EFB02E150230A228C217820FFF77C
:1048800007FBFBE050230B229A218420FFF700FB5B
:10489000F4E050230C22A8219020FFF7F9FAEDE074
:1048A00050230D22B6219C20FFF7F2FAE6E0E4E067
:1048B00050230E22C421A820FFF7EAFADEE050239D
:1048C0000F22D221B420FFF7E3FAD7E050231022C1
:1048D000E021C020FFF7DCFAD0E0002407E07449B3
:1048E00004F10D00085C73490855601CC4B20C2C1F
:1048F000F5DB002407E06E4904F12A00085C6949F1
:104900000855601CC4B20E2CF5DB66496348FBF702
:10491000DFFC002879D167496148FBF7D9FC002802
:10492000F8D1002442E0A01E6149085C4A281BD14E
:10493000601E085C582817D101205F4908600025D7
:104940000AE02046611CCCB25949095C534A05F182
:10495000EE001154681CC5B20E2DF2DB0020574941
:104960004870132051490870201F5149085C4D2898
:104970001AD1E01E085C412816D1A01E085C43280D
:1049800012D1601E085C3D280ED100250AE02046A9
:10499000611CCCB24649095C414A05F1CC00115476
:1049A000681CC5B20C2DF2DB601CC4B23C2CBADB17
:1049B0004FF4967001F052FA01F089F840A001F02E
:1049C00090FC01F084F80E22FC21344800F0F6FE41
:1049D00001F07DF83FA001F084FC01F078F80C2292
:1049E000D8212F4800F0EAFE01F071F8022001F012
:1049F00005F88C2229493D48FFF780F9782228499B
:104A00003B48FFF77BF9002507E027E0234905F144
:104A10008C00085C4855681CC5B2702DF6DB00257B
:104A200007E01E4905F17800085C1D494855681CDF
:104A3000C5B2602DF5DB702218492E48FFF75EF9EC
:104A4000602217492C48FFF759F900202B4981F8BB
:104A500086011A490870012008710DE011490F48BC
:104A6000FBF736FC40B1022000F0C8FF02A801F0BD
:104A700013F811200D49087000E000BF00BF06B018
:104A800070BD000041542B5343414E3A5253534999
:104A90003D2D0000480000206E0000202010002066
:104AA0001F110020F7110020700000206F0000206F
:104AB0005B04002005120020B48121422015002053
:104AC000C9A8C3E8B5BDB5C4C0B6D1C0B1EDBAC5BB
:104AD0003A000000C9A8C3E8B5BDB5C4C0B6D1C08E
:104AE0004D4143B5D8D6B73A0000000000C80008D1
:104AF00000D8000800CC000800DC00085A0600209E
:104B00000448008820B103480088401E01490880FD
:104B1000704700000000002070B50821464800F0F2
:104B20009BFE30B10821444800F072FE424800F07C
:104B30005BFF40F22551404800F09BFE002879D0F1
:104B40003E480078012827D11E203D4908800120D9
:104B50003C49087040F22551374800F062FE364863
:104B6000001D00883849394A12788854384800783E
:104B700038B1314800F038FFC5B22946354800F059
:104B800038FF32480078401C3049087008460078E9
:104B9000FF2801DD0020087028480078022849D14C
:104BA000254800F021FFC4B240F22551224800F010
:104BB00038FE224890F8FF0170B9204844704078D0
:104BC000362804D101201D4981F8FF011EE0002094
:104BD0001A4981F8FF0119E0184890F8FF010128EF
:104BE00009D116488470807838280FD102201349E3
:104BF00081F8FF010AE0114890F8FF1190F8FF01D9
:104C0000401C0E4A82F8FF01501C44540B4890F897
:104C1000FF01FF2803DD0020084981F8FF010C484F
:104C2000007838B1044800F0DFFEC5B229460948D3
:104C300000F0DFFE70BD0000003801409000002051
:104C400030000020330000205C0300204A000020D8
:104C5000490000200048004010B586B004460121FC
:104C60000520FEF793F801218803FEF78FF818203E
:104C70008DF817004FF40070ADF8140003208DF884
:104C8000160005A91E48FCF756FC04208DF81700F5
:104C90000002ADF8140003208DF8160005A918488D
:104CA000FCF749FC01940020ADF810000C20ADF891
:104CB0000E000020ADF80C00ADF80A00ADF80800B9
:104CC00001A9104800F024FE01210E4800F0B8FDB3
:104CD000012240F225510B4800F0F5FD25208DF80A
:104CE000000001208DF8030000208DF80100012054
:104CF0008DF802006846FDF77BFD06B010BD000090
:104D0000000801400038014010B5044603E0207857
:104D100000F006F8641C20780028F8D110BD0000CF
:104D200010B504462146054800F063FE00BF80210F
:104D3000024800F091FD0028F9D010BD0038014074
:104D4000F0B5C1B04021FC4800F062FD0821FA48EE
:104D500000F082FD30B10821F74800F059FDF64817
:104D600000F042FE40F22551F34800F082FD002899
:104D70007ED0F2484078012827D1F1490870F149E6
:104D80000880ED48001D0088C1B2EF480278007825
:104D9000401CED4B1870ED488154ED48007838B157
:104DA000E54800F021FEC7B23946EA4800F021FE8E
:104DB000E5480078FF2802DB0020E349087040F254
:104DC0002551DD4800F02DFD5CE3DC4840780228E9
:104DD0003AD1E1480088401CDF4908800846008835
:104DE00046280DDDDD484078012809D100200880E3
:104DF000D54908700120DA490870DAA000F04CFEAD
:104E0000CD48001D0088C2B2CF4801780078401C10
:104E1000CD4B1870CD484254CD48007838B1C648C3
:104E200000F0E2FDC7B23946CA4800F0E2FDC648CC
:104E30000078FF2802DB0020C349087040F22551AA
:104E4000BD4800F0EEFC1DE3BC488078012870D11D
:104E5000B94800F0C9FDC5B2B84890F85B0390B9F5
:104E6000B64880F8DA5190F8DA01682806D100E0F7
:104E700018E30121B14880F85B1322E00021AF481C
:104E800080F85B131DE0AD4890F85B0301280BD15F
:104E9000AA4880F8DB5190F8DB01102811D10221DB
:104EA000A64880F85B130CE0A44890F85B1390F8D8
:104EB0005B03401CC2B2A14880F85B2300F5ED7093
:104EC00045549E4890F8E4010C30A949085C162826
:104ED00014D10120A14948710846407970B182215E
:104EE000A348FF30FBF7DDF93B22A149FF31A04881
:104EF000FCF764FC0021914880F85B138F4890F820
:104F00005B03FF2803DB00218C4880F85B1390488B
:104F1000007838B1884800F067FDC5B229468D4851
:104F200000F067FD40F22551834800F07AFCA9E2C9
:104F3000FFE782480078002885D07F4800F054FDC4
:104F4000C6B28C4890F88101C8B98A4880F882605E
:104F500090F88200682808D14FF4FA708549A1F8CA
:104F60008801012081F8810126E00020814981F833
:104F70008101FF217F488230FBF793F91CE07D48D7
:104F800090F8810101280BD17A4880F8836090F86D
:104F90008300202810D10220764981F881010BE09E
:104FA000744890F8811190F88101401C714A82F890
:104FB000810102F1820046546E4890F88C000C305A
:104FC0006C498231085C162829D10020823981F889
:104FD0008A01A1F88801012067490870654890F8A6
:104FE0008B0032281CD1634890F88E002F2817D1EF
:104FF000604890F89000FF2812D100205D4981F8A8
:105000008101FEF7B1FBFDF735FC5CA20021012018
:10501000FDF7B2FCFF2157488230FBF742F928E246
:10502000544890F88B00332819D1524890F88E00DC
:105030003F2814D14F4890F89000EE280FD100205F
:105040004C4981F88101FEF7D5FFFF2149488230A4
:10505000FBF727F90120474981F8850109E2454816
:1050600090F88B00342865D1424890F88E004F2884
:1050700060D1404890F88C000A303E498231085C8B
:10508000012809D1823981F88B01FDF7F3FB40A299
:1050900000210120FDF770FC364890F88C000A30A2
:1050A00034498231085C022809D1823981F88B01A8
:1050B000FDF7E0FB3AA200210120FDF75DFC2D4841
:1050C00090F88C000A302B498231085C032809D102
:1050D000823981F88B01FDF7CDFB35A2002101203B
:1050E000FDF74AFC234890F88C000A3021498231B0
:1050F000085C042809D1823981F88B01FDF7BAFBDD
:105100002FA200210120FDF737FC1A4890F88C00EF
:105110000A3018498231085C05289FD10020823965
:1051200081F88101FF2113488230FBF7BAF8FCF7C0
:105130003FF99EE14CE0000000440040E8070020F9
:105140005B000020580000204B0000205B04002082
:1051500049000020004800404600002020150020A3
:105160004800002041542B53544F505343414E00AC
:10517000C20900205A06002074000020B6C1C8A150
:10518000C9E8B1B8D0C5CFA2B3C9B9A60000000024
:10519000D0B4B1EDBAC5317E3130B3C9B9A6000083
:1051A000D0B4B1EDBAC531317E3230B3C9B9A60041
:1051B000D0B4B1EDBAC532317E3330B3C9B9A6002F
:1051C000D0B4B1EDBAC533317E3430B3C9B9A6001D
:1051D000B54890F88B0035287AD1B34890F88E0006
:1051E0005F2875D1B04890F89000DD2870D1AE48A6
:1051F00090F88C000A30AC498231085C012812D149
:10520000FEF7AAFC0020A84981F88101FF21A648E9
:105210008230FBF746F8FDF72DFBA4A20021012008
:10522000FDF7AAFB25E1A04890F88C000A309E49C2
:105230008231085C02280BD1FEF78EFC00209A49CF
:1052400081F88101FF2198488230FBF72AF810E1AC
:10525000954890F88C000A3093498231085C032805
:105260000BD1FEF779FC00208F4981F88101FF21E5
:105270008D488230FBF715F8FBE08B4890F88C00E6
:105280000A3089498231085C04280BD1FEF764FC9E
:105290000020854981F88101FF2183488230FBF796
:1052A00000F8E6E0804890F88C000A307E498231B0
:1052B000085C0528B6D1FEF74FFC00207A4981F83A
:1052C0008101FF2178488230FAF7EBFFD1E0FFE758
:1052D000754890F88B0015282FD1734890F88D00F1
:1052E000B0282AD1704890F88E00192825D10024C2
:1052F00008E06D48823004F10F01415C1E38015511
:10530000601CC4B2142CF4DB1422674964316B486E
:10531000FEF7F4FCFEF746FF0020634981F88101A7
:10532000FF2161488230FAF7BCFFFDF7A3FA64A2BF
:1053300000210120FDF720FB9BE05B4890F88B00EB
:1053400003281CD1584890F88D00912817D1564851
:1053500090F88E000B2812D1FEF77CFA00205249FB
:1053600081F88101FF2150488230FAF79AFFFDF75A
:1053700081FA58A200210120FDF7FEFA79E04A489F
:1053800090F88B0026284DD1474890F88D00AA2828
:1053900048D1454890F88E00BB2843D1002404E052
:1053A000302001A90855601CC4B2FF2CF8DB8E2206
:1053B00001A94D48FEF7A2FC7A2201A94B48FEF74D
:1053C0009DFC8E2201A94A48FEF798FC7A2201A989
:1053D0004848FEF793FC8E2201A94748FEF78EFC51
:1053E0007A2201A94548FEF789FC8E2201A944488A
:1053F000FEF784FC7A2201A94248FEF77FFCFBF706
:105400008BFB0020284981F88101FF21264882304A
:10541000FAF747FFFDF72EFA3BA200210120FDF726
:10542000ABFA26E0204890F88B00362821D11E48A0
:1054300090F88D00CC281CD11B4890F88E00BB281A
:1054400017D10120184981F88C0181F88D01FAF7F4
:10545000C5FF0020144981F88101FF2112488230E4
:10546000FAF71FFFFDF706FA2BA200210120FDF736
:1054700083FA0D4890F88101FF2803DB00200A49D8
:1054800081F881012748007838B1274800F0ACFA4C
:10549000C6B23146254800F0ACFA40F22551224808
:1054A00000F0BFF941B0F0BD5A060020B6C1B1ED21
:1054B000BAC5B3C9B9A6A3A10000000000F0000856
:1054C000C9E8D6C34950BACDB6CBBFDAB3C9B9A67D
:1054D00000000000B6C1C8A14950BACDB6CBBFDAB2
:1054E000B3C9B9A60000000000C8000800D8000831
:1054F00000CC000800DC000800D0000800E0000834
:1055000000D4000800E40008C7E5B1EDBDDAB5E35A
:10551000B3C9B9A600000000D5FDD4DAB3ADB1ED32
:105520002E2E2E004900002000440040004800407C
:1055300010B586B0044601210520FDF727FC0121A6
:105540004804FDF713FC0420ADF8140018208DF872
:10555000170003208DF8160005A91E48FBF7EBFF86
:105560000820ADF8140004208DF8170003208DF8F2
:10557000160005A91748FBF7DEFF01940020ADF8DF
:105580000800ADF80A00ADF80C00ADF810000C20D2
:10559000ADF80E0001A9104800F0BAF9012240F25E
:1055A00025510D4800F08FF901210B4800F048F912
:1055B00026208DF8000001208DF8010002208DF8D2
:1055C000020001208DF803006846FDF711F906B0CE
:1055D00010BD0000000801400044004070B50446C2
:1055E0000D46002600BF0BE00948007810B1207876
:1055F00000F0FEF8207800F019F8641C701CC6B2A8
:10560000AE42F1DB4FF4967000F028FC70BD000054
:105610004900002010B5044603E0207800F006F8A9
:10562000641C20780028F8D110BD000010B5044695
:105630002146054800F0DDF900BF8021024800F056
:105640000BF90028F9D010BD0044004010B5082126
:105650001A4800F001F930B10821184800F0D8F8D4
:10566000164800F0C1F940F22551144800F001F944
:1056700010B340F22551114800F0D3F80F48001D37
:105680000088C1B20E4802780078401C0C4B18709C
:105690000C48815418460078FF2802DB0020194688
:1056A00008700948007838B1044800F09DF9C4B288
:1056B0002146024800F09DF910BD0000004800405E
:1056C0004C0000205A0500204900002010B586B08B
:1056D000044601210920FDF759FB01218804FDF74B
:1056E00045FB4FF48060ADF8140018208DF81700CA
:1056F00003208DF8160005A92148FBF71CFF4FF485
:105700000060ADF8140004208DF8170003208DF818
:10571000160005A91A48FBF70EFF01940020ADF80A
:105720000800ADF80A00ADF80C00ADF810000C2030
:10573000ADF80E0001A9134800F0EAF8012240F28A
:105740002551104800F0BFF8012240F224410D48D5
:1057500000F0B9F801210B4800F072F827208DF80D
:10576000000002208DF8010003208DF802000120C6
:105770008DF803006846FDF73BF806B010BD000049
:10578000000C01400048004070B504460D4600265C
:1057900000BF05E0207800F02BF8641C701CC6B236
:1057A000AE42F7DB70BD10B5044603E0207800F090
:1057B0001FF8641C20780028F8D110BD2DE9F041B5
:1057C00004460E461746002500BF0CE095FBF7F097
:1057D00007FB105008B900F07AF9207800F008F8BB
:1057E000641C681CC5B2B542F0DBBDE8F081000066
:1057F00010B504462146054800F0FBF800BF8021A3
:10580000024800F029F80028F9D010BD00480040F7
:1058100001F40072B2F5007F00D100BFCA430280DC
:10582000704710B50022002340F66A14A14200D14F
:1058300000BF0A1201249440A3B2DC43048010BDCF
:1058400021B1828942F40052828104E082894DF6BE
:10585000FF731A408281704702460020B1F5007F35
:1058600000D100BF13880B400BB1012000E00020E5
:10587000704770B50246002400230025002040F642
:105880006A16B14200D100BFC1F3421501F01F03F7
:10589000012606FA03F3012D02D19689334006E072
:1058A000022D02D1168A334001E0968A33400C1251
:1058B000012606FA04F41688344013B10CB1012015
:1058C00000E0002070BDF0B503460024002600254E
:1058D000002040F66A17B94200D100BF1846C1F354
:1058E000421401F01F06012707FA06F5012C01D129
:1058F0000C3004E0022C01D1103000E014301AB159
:1059000007682F43076002E00768AF430760F0BDF8
:105910002DE9F04786B005460E460024A24600BF9A
:10592000A1460027B08900B100BF2F462C8A4CF653
:10593000FF700440F08804432C82AC894EF6F310CB
:105940000440B08831890843718908430443AC811D
:10595000AC8A4FF6FF400440B0890443AC8201A8F2
:10596000FDF72AFA1F48874202D1DDF810A001E0B6
:10597000DDF80CA0A88900F4004040B10AEBCA0091
:1059800000EB0A1031684900B0FBF1F807E00AEBC0
:10599000CA0000EB0A1031688900B0FBF1F86420FE
:1059A000B8FBF0F004012009642101FB1089A889EB
:1059B00000F4004040B1322000EBC900B0FBF1F030
:1059C00000F00700044308E0322000EB09106421D6
:1059D000B0FBF1F000F00F0004432C8106B0BDE8ED
:1059E000F08700000038014001468888C0F30800B5
:1059F0007047C1F3080282807047000010B504466A
:105A0000012C04D0022C0AD0032C18D10FE0FF2166
:105A10000C48FAF746FC00200B49087010E0FF2103
:105A20000A48FAF73EFC00200949087008E0FF2107
:105A30000848FAF736FC00200749087000E000BF6C
:105A400000BF10BD5C0300204A0000205B04002062
:105A50004B0000205A0500204C00002010B50446E1
:105A60000848007820B12046FFF79DFE00F02FF88F
:105A7000C82000F0F3F92046FFF746F900F004F8DB
:105A800010BD00004900002010B50D20FFF748F9B7
:105A90000A20FFF745F910BD10B504460848007804
:105AA00020B12046FFF77FFE00F011F8C82000F07B
:105AB000D5F92046FFF7AEFD00F004F810BD000058
:105AC0004900002010B50D20FFF7B0FD10BD10B546
:105AD0000D20FFF78DFE0A20FFF78AFE10BD00BFE4
